:100000000C9452000C946F000C946F000C946F00D1
:100010000C946F000C946F000C946F000C946F00A4
:100020000C946F000C946F000C946F000C946F0094
:100030000C946F000C946F000C946F000C946F0084
:100040000C946F000C946F000C946F000C946F0074
:100050000C946F000C946F000C946F000C946F0064
:100060000C946F000C946F004E414E494E49545908
:10007000494E46CDCCCC3D0AD7233C17B7D1387773
:10008000CC2B329595E6241FB14F0A000020410089
:1000900000C84200401C4620BCBE4CCA1B0E5AAED3
:1000A000C59D740011241FBECFEFD8E0DEBFCDBFC9
:1000B00011E0A0E0B1E0E2EFFEE102C005900D9298
:1000C000A637B107D9F721E0A6E7B1E001C01D923C
:1000D000AE3DB207E1F70E9415080C94770F0C941F
:1000E000000088309105A8F56230710589F44AB1A5
:1000F00021E030E0B90102C0660F771F8A95E2F770
:10010000CB01962F909594239AB99BB1892B13C05C
:100110006115710591F44AB121E030E0B90102C0E6
:10012000660F771F8A95E2F7CB018095942F98236D
:100130009AB99BB189238BB908956130710509F093
:100140003FC09AB101C0660F8A95EAF7692B6AB978
:1001500008950E978630910598F56230710589F4FF
:1001600047B121E030E0B90102C0660F771F8A95E0
:10017000E2F7CB01962F9095942397B998B1892BEC
:1001800013C06115710591F447B121E030E0B90168
:1001900002C0660F771F8A95E2F7CB018095942FF6
:1001A000982397B998B1892388B90895613071056A
:1001B00039F497B101C0660F8A95EAF7692B67B9E0
:1001C00008959C01089710F499B106C02E5031098A
:1001D0002630310558F496B1892F90E002C09595EC
:1001E00087952A95E2F781709927089580E090E03D
:1001F00008952F923F924F925F926F927F92AF92AB
:10020000BF92CF92DF92EF92FF920F931F93CF9303
:10021000DF93CDB7DEB764970FB6F894DEBF0FBE9D
:10022000CDBF1C015C0180E090E01BE2C12CD12C11
:100230007601F10101900020E9F73197E219F30905
:100240009501221933092E173F0708F05DC0F5010B
:1002500001915F01202F002E000C330B2053310938
:10026000E1E0F0E0EC0FFD1FE80FF91F2A30310547
:1002700010F00E3221F400830196012F43C010824A
:10028000CE0101960E94B30ABC01990F880B990B0D
:100290000E9436092B013C011B3279F04CF41A32D2
:1002A00049F59B01AC01C701B6010E94EB0920C0D2
:1002B0001D3251F01F3279F01DC09B01AC01C70106
:1002C000B6010E941B0814C09B01AC01C701B60116
:1002D0000E941A080DC020E030E0A9010E948708A2
:1002E000882359F0A3019201C701B6010E948C082E
:1002F0006B017C0180E090E005C080E090E0C12CC3
:10030000D12C7601102F95CF009709F445C0E1E07C
:10031000F0E0EC0FFD1FE80FF91F1082CE010196EF
:100320000E94B30ABC01990F880B990B0E943609F1
:100330002B013C011B3279F04CF41A3269F59B0118
:10034000AC01C701B6010E94EB0912C01D3251F089
:100350001F3289F021C09B01AC01C701B6010E9488
:100360001B0806C09B01AC01C701B6010E941A0818
:100370006B017C0111C020E030E0A9010E948708D8
:10038000882339F0A3019201C701B6010E948C08AD
:10039000EFCFC12CD12C7601C701B60164960FB600
:1003A000F894DEBF0FBECDBFDF91CF911F910F91AB
:1003B000FF90EF90DF90CF90BF90AF907F906F90C5
:1003C0005F904F903F902F900895CF93DF93CDB7DC
:1003D000DEB7C456D1090FB6F894DEBF0FBECDBF4D
:1003E000BC01CE0101960E94CD0ACE0101960E9469
:1003F000F900CC59DF4F0FB6F894DEBF0FBECDBF6A
:10040000DF91CF9108952F923F924F925F926F921A
:100410007F928F929F92AF92BF92CF92DF92EF9294
:10042000FF920F931F93CF93DF9300D000D0CDB7EF
:10043000DEB72BED3FE049E450E40E94EB0920E0F9
:1004400030E044E353E40E948C086B017C012BED07
:100450003FE049E450E40E94E60918164CF42BED05
:100460003FE049EC50E4C701B6010E941A08EDCF05
:100470002BED3FE049E450ECC701B6010E9487082C
:1004800087FF0BC02BED3FE049EC50E4C701B601FC
:100490000E941B086B017C01EBCF2AE037ED43E2A1
:1004A0005CE3C701B6010E948C089F770E94FE089A
:1004B0007C836B831616170624F081E090E09C8302
:1004C0008B832B813C81B901330F880B990B0E94E0
:1004D00036099B01AC01C701B6010E948C082B01B3
:1004E0003C01C12CD12C812C912C80E8A82E8FE3CB
:1004F000B82EE12CF12C00E010E0A5019401C3011D
:10050000B2010E94EB099701A8010E941B081B0180
:1005100089839A839701A801C301B2010E94EB0964
:100520009B01AC01C501B4010E941A084B015C019A
:100530003FEFC31AD30A710109811A818B819C8113
:100540008C159D05D1F6B101C8010F900F900F9049
:100550000F90DF91CF911F910F91FF90EF90DF905F
:10056000CF90BF90AF909F908F907F906F905F9053
:100570004F903F902F9008952F923F924F925F920D
:100580006F927F928F929F92AF92BF92CF92DF92A3
:10059000EF92FF920F931F93CF93DF9300D000D081
:1005A000CDB7DEB72BED3FE049E450E40E94EB0904
:1005B00020E030E044E353E40E948C086B017C01AE
:1005C0002BED3FE049E450E40E94E60918164CF494
:1005D0002BED3FE049EC50E4C701B6010E941A0838
:1005E000EDCF2BED3FE049E450ECC701B6010E948E
:1005F000870887FF0BC02BED3FE049EC50E4C701B3
:10060000B6010E941B086B017C01EBCF2AE037ED9D
:1006100043E25CE3C701B6010E948C089F770E9409
:10062000FE087C836B831616170624F081E090E0A9
:100630009C838B832B813C81B901330F880B990BF1
:100640000E9436099B01AC01C701B6010E948C08CB
:100650002B013C0100E010E0C12CD12C80E8E82EF9
:100660008FE3F82E912CA12CB12C812CA70196019F
:10067000C301B2010E94EB09292D3A2D4B2D582DB3
:100680000E941B081B0189839A83292D3A2D4B2D2B
:10069000582DC301B2010E94EB099B01AC01C701B7
:1006A000B6010E941A086B017C010F5F1F4F922C4C
:1006B000A32CB9808A808B819C8180179107B1F629
:1006C000C701B6010F900F900F900F90DF91CF915F
:1006D0001F910F91FF90EF90DF90CF90BF90AF9060
:1006E0009F908F907F906F905F904F903F902F9052
:1006F00008958F929F92AF92BF92CF92DF92EF9226
:10070000FF920F931F93CF93DF936B017C012AE03D
:1007100037ED43E25CE30E948C089F770E94FE085D
:10072000EB011C161D0614F0C1E0D0E0BE010D2E39
:10073000000C880B990B0E9436099B01AC01C70184
:10074000B6010E948C084B015C0100E010E0C12C56
:10075000D12C80E8E82E8FE3F82EA7019601C50181
:10076000B4010E94EB099B01AC01C701B6010E94D4
:100770001B086B017C010F5F1F4FC017D10769F782
:10078000DF91CF911F910F91FF90EF90DF90CF906D
:10079000BF90AF909F908F9008958F929F92AF924D
:1007A000BF92EF92FF920F931F93CF93DF934B0172
:1007B0005C0120E030E0A9010E94870887FD31C07C
:1007C00020E030E0A901C501B4010E948708882318
:1007D00069F120E030E040E05FE3C501B4010E9430
:1007E000EB098B01D82FC92F8AE0E82EF12C980154
:1007F0004D2F5C2FC501B4010E948C0898014D2F2C
:100800005C2F0E941B0820E030E040E05FE30E9484
:10081000EB098B01D82FC92F81E0E81AF10839F7CD
:1008200009C000E010E0D0E8CFEB04C000E010E029
:10083000D0E0C0E0B8018D2F9C2FDF91CF911F91A8
:100840000F91FF90EF90BF90AF909F908F90089581
:100850004F925F926F927F928F929F92AF92BF92D0
:10086000CF92DF92EF92FF920F931F93CF93DF937C
:100870006B017C0120E030E040E85FE30E94E60984
:1008800018168CF020E030E040E85FEBC701B601BD
:100890000E94870887FF0DC0C12CD12C90E8E92E5B
:1008A0009FEBF92E06C0C12CD12C80E8E82E8FE3F7
:1008B000F82E2AE037ED43E25CE3C701B6010E945F
:1008C0008C089F770E94FE08EB011C161D0614F091
:1008D000C1E0D0E0BE010D2E000C880B990B0E94E8
:1008E00036099B01AC01C701B6010E948C082B019F
:1008F0003C0100E010E0C12CD12C760146015701EB
:10090000A7019601C701B6010E94EB099B01AC014A
:1009100060E070E080E89FE30E941A080E945E0A8F
:100920009B01AC0160E070E080E89FE30E948C08CE
:10093000A30192010E94EB099B01AC01C501B40126
:100940000E941B084B015C01A3019201C701B60183
:100950000E941B086B017C010F5F1F4FC017D1075E
:1009600079F6C501B401DF91CF911F910F91FF90EE
:10097000EF90DF90CF90BF90AF909F908F907F903F
:100980006F905F904F9008950E9428049B01AC01E6
:100990006BED7FE089EC9FE30E941A0808954F9267
:1009A0005F926F927F928F929F92AF92BF92CF92FF
:1009B000DF92EF92FF920F931F93CF93DF936B0120
:1009C0007C012AE037ED43E25CE30E948C089F77CC
:1009D0000E94FE08EB011C161D0614F0C1E0D0E0D9
:1009E000BE010D2E000C880B990B0E9436099B014D
:1009F000AC01C701B6010E948C082B013C0100E04C
:100A000010E0C12CD12C760146015701A7019601B7
:100A1000C701B6010E94EB0920E030E040E85FE347
:100A20000E941B089B01AC0160E070E080E89FE33E
:100A30000E948C08A30192010E94EB099B01AC016A
:100A4000C501B4010E941B084B015C01A301920186
:100A5000C701B6010E941B086B017C010F5F1F4F8D
:100A6000C017D10799F6C501B401DF91CF911F914D
:100A70000F91FF90EF90DF90CF90BF90AF909F903D
:100A80008F907F906F905F904F9008954F925F92FC
:100A90006F927F928F929F92AF92BF92CF92DF928E
:100AA000EF92FF920F931F93CF93DF936B017C0123
:100AB00020E030E0A9010E94870818160CF05AC007
:100AC00020E030E040E85FE3C701B6010E941A0869
:100AD0004B015C012AE037ED43E25CE30E948C08A5
:100AE0009F770E94FE087B01161617061CF0EE2465
:100AF000E394F12CB7010F2C000C880B990B0E948A
:100B000036099B01AC01C501B4010E948C082B0180
:100B10003C01C12CD12C812C912C80E8A82E8FE394
:100B2000B82E00E010E0D0E0C0E0A501940160E044
:100B300070E080E89FE30E948C08A30192010E946C
:100B4000EB099B01AC01B8018D2F9C2F0E941B0863
:100B50008B01D82FC92FA3019201C501B4010E94B6
:100B60001B084B015C018FEFC81AD80AEC14FD0476
:100B7000E1F604C000E014E2D4E7C9ECB8018D2F1F
:100B80009C2FDF91CF911F910F91FF90EF90DF90FD
:100B9000CF90BF90AF909F908F907F906F905F901D
:100BA0004F900895CF92DF92EF92FF920E944605F8
:100BB0006B017C0160E070E080E291E40E944605F8
:100BC0009B01AC01C701B6010E948C08FF90EF9019
:100BD000DF90CF9008959BB19F70282F207F922B9C
:100BE0009BB95F985E9A35E03A95F1F700005E9800
:100BF000EFE8F1E03197F1F700C000002BB12F7062
:100C0000F0E18F9FC0011124822B8BB95E9A35E0F1
:100C10003A95F1F700005E988FE891E00197F1F7BF
:100C200000C0000008959BB19F70282F207F922B59
:100C30009BB95F9A5E9A35E03A95F1F700005E98AD
:100C4000EFE8F1E03197F1F700C000002BB12F7011
:100C5000F0E18F9FC0011124822B8BB95E9A35E0A1
:100C60003A95F1F700005E988FE891E00197F1F76F
:100C700000C0000008958FEF8AB92FEF89EF90E050
:100C8000215080409040E1F700C0000082E00E94C7
:100C9000EB0588E20E94EB058CE00E94EB0586E004
:100CA0000E94EB0581E00E94EB058FE39FE1019735
:100CB000F1F700C000000895CF93DF93EC01899114
:100CC000882319F00E941306FACFDF91CF9108957F
:100CD00081E00E94EB058FE39FE10197F1F700C0EF
:100CE00000000895CF93DF930E943B06C8E2D1E055
:100CF00062E070E0899199910E94710021E0CC330B
:100D0000D207B1F762E070E083E190E00E947100E9
:100D100062E070E08DE090E00E9471008CE391E071
:100D20000E945C068FEF93ED20E3815090402040BD
:100D3000E1F700C00000DF91CF910C946806CF93DB
:100D4000DF93CDB7DEB761970FB6F894DEBF0FBE65
:100D5000CDBF0E946806E8E7F1E001900020E9F7C6
:100D60003197E857F140719718F488E791E012C085
:100D700040E150E068E771E0CE0101960E94E40A8C
:100D8000198ACE0101960E945C0680EC0E94EB0558
:100D900088E891E00E945C0661960FB6F894DEBF89
:100DA0000FBECDBFDF91CF9108950F931F93CF93C7
:100DB000DF93CDB7DEB7C957D1090FB6F894DEBFC0
:100DC0000FBECDBFEA968FAFEA978C3369F480915E
:100DD0007801882309F45EC0E8E7F1E00190002083
:100DE000E9F73297108256C08D3309F04AC068E2A5
:100DF00070E088E791E00E94C20A892B71F069E2F5
:100E000070E088E791E00E94C20A892B31F46DE41A
:100E100071E088E791E00E94B70A68E771E0CE01CF
:100E200001960E94CD0A88E791E00E94E5019F9318
:100E30008F937F936F938FE491E09F938F931F9293
:100E400084E18F938E010B591F4F1F930F930E94C4
:100E5000F30AB80188E791E00E94B70A0E949F0652
:100E60002FEF8BE792E9215080409040E1F700C0DE
:100E70000000109278010FB6F894DEBF0FBECDBF10
:100E800009C041E050E0BE0167587F4F88E791E01C
:100E90000E94D40AC758DF4F0FB6F894DEBF0FBECA
:100EA000CDBFDF91CF911F910F9108956F927F92E7
:100EB0008F929F92AF92BF92CF92DF92EF92FF926A
:100EC0000F931F93CF93DF9383E190E00E94E100A3
:100ED00020910101213021F4009711F42093770132
:100EE000809301018DE090E00E94E10020910001DB
:100EF000213021F4009711F42093760180930001B2
:100F000088E2682E81E0782E0AE111E094E1C92E92
:100F100091E0D92E20E0E22E21E0F22E32E0832E65
:100F200031E0932EC0E0D0E0F301A190B1903F01F9
:100F3000C5010E94E100892B09F058C0FFEF20E7AE
:100F400082E0F15020408040E1F700C00000C50180
:100F50000E94E100892B09F049C0C5010E94E1000F
:100F6000892BD9F3809176018823D9F0C530D1053A
:100F700074F4F4016081718188E791E00E94B70AFE
:100F800065E571E088E791E00E94B70A07C041E09B
:100F900050E0B80188E791E00E94D40A10927601EF
:100FA00023C0809177018823C1F0C630D1052CF48D
:100FB000F60180810E94D5060DC0F7016081718124
:100FC00088E791E00E94B70A65E571E088E791E063
:100FD0000E94B70A1092770107C041E050E0B801C3
:100FE00088E791E00E94D40A0E949F0621960F5F35
:100FF0001F4FFFEFCF1ADF0A22E0E20EF11C82E062
:10100000880E911CCA30D10509F08ECFDF91CF91A7
:101010001F910F91FF90EF90DF90CF90BF90AF9016
:101020009F908F907F906F9008950E9472060E940B
:101030005607FDCF5058BB27AA270E9432080C94B0
:10104000AC090E949E0938F00E94A50920F039F4ED
:101050009F3F19F426F40C949B090EF4E095E7FBEE
:101060000C949509E92F0E94BD0958F3BA1762073D
:1010700073078407950720F079F4A6F50C94DF092F
:101080000EF4E0950B2EBA2FA02D0B01B9019001A3
:101090000C01CA01A0011124FF27591B99F0593FE7
:1010A00050F4503E68F11A16F040A22F232F342F2F
:1010B0004427585FF3CF469537952795A795F0407D
:1010C0005395C9F77EF41F16BA0B620B730B840B92
:1010D000BAF09150A1F0FF0FBB1F661F771F881F4A
:1010E000C2F70EC0BA0F621F731F841F48F48795A2
:1010F00077956795B795F7959E3F08F0B0CF939594
:10110000880F08F09927EE0F9795879508950E940C
:10111000710908F481E008950E94A0080C94AC09BC
:101120000E94A50958F00E949E0940F029F45F3FF3
:1011300029F00C94950951110C94E0090C949B0929
:101140000E94BD0968F39923B1F3552391F3951BD0
:10115000550BBB27AA2762177307840738F09F5FD8
:101160005F4F220F331F441FAA1FA9F335D00E2E45
:101170003AF0E0E832D091505040E695001CCAF7B2
:101180002BD0FE2F29D0660F771F881FBB1F261775
:1011900037074807AB07B0E809F0BB0B802DBF014C
:1011A000FF2793585F4F3AF09E3F510578F00C941B
:1011B00095090C94E0095F3FE4F3983ED4F38695DB
:1011C00077956795B795F7959F5FC9F7880F911D3C
:1011D0009695879597F90895E1E0660F771F881F28
:1011E000BB1F621773078407BA0720F0621B730BDB
:1011F000840BBA0BEE1F88F7E09508950E9405094D
:101200006894B1110C94E00908950E94C50988F012
:101210009F5798F0B92F9927B751B0F0E1F0660FBA
:10122000771F881F991F1AF0BA95C9F714C0B130FB
:1012300091F00E94DF09B1E008950C94DF09672F57
:10124000782F8827B85F39F0B93FCCF3869577952A
:101250006795B395D9F73EF4909580957095619513
:101260007F4F8F4F9F4F0895E89409C097FB3EF43E
:1012700090958095709561957F4F8F4F9F4F9923E3
:10128000A9F0F92F96E9BB279395F6958795779561
:101290006795B795F111F8CFFAF4BB0F11F460FF21
:1012A0001BC06F5F7F4F8F4F9F4F16C0882311F079
:1012B00096E911C0772321F09EE8872F762F05C08D
:1012C000662371F096E8862F70E060E02AF09A9528
:1012D000660F771F881FDAF7880F9695879597F91D
:1012E0000895990F0008550FAA0BE0E8FEEF1616B7
:1012F0001706E807F907C0F012161306E407F5070A
:1013000098F0621B730B840B950B39F40A2661F07D
:10131000232B242B252B21F408950A2609F4A14020
:10132000A6958FEF811D811D089597F99F6780E82D
:1013300070E060E008959FEF80EC089500240A9427
:101340001616170618060906089500240A941216A0
:101350001306140605060895092E0394000C11F4D3
:10136000882352F0BB0F40F4BF2B11F460FF04C080
:101370006F5F7F4F8F4F9F4F089557FD9058440FD9
:10138000551F59F05F3F71F04795880F97FB991FE4
:1013900061F09F3F79F087950895121613061406A1
:1013A000551FF2CF4695F1DF08C01616170618062E
:1013B000991FF1CF86957105610508940895E89409
:1013C000BB2766277727CB0197F908950E947109FB
:1013D00008F48FEF08950E94FE090C94AC090E9456
:1013E0009E0938F00E94A50920F0952311F00C9475
:1013F00095090C949B0911240C94E0090E94BD09E5
:1014000070F3959FC1F3950F50E0551F629FF00157
:10141000729FBB27F00DB11D639FAA27F00DB11D70
:10142000AA1F649F6627B00DA11D661F829F2227F9
:10143000B00DA11D621F739FB00DA11D621F839F80
:10144000A00D611D221F749F3327A00D611D231F56
:10145000849F600D211D822F762F6A2F11249F57A4
:1014600050409AF0F1F088234AF0EE0FFF1FBB1FA7
:10147000661F771F881F91505040A9F79E3F510566
:1014800080F00C9495090C94E0095F3FE4F3983EDA
:10149000D4F3869577956795B795F795E7959F5F10
:1014A000C1F7FE2B880F911D9695879597F90895A2
:1014B00019F416F40C949B090C949E0A0E94C50919
:1014C000B8F39923C9F3B6F39F57550B87FF0E94D2
:1014D000AC0A0024A0E640EA900180585695979502
:1014E00028F4805C660F771F881F20F026173707C7
:1014F000480730F4621B730B840B202931294A2BD7
:10150000A69517940794202531254A2758F7660F8A
:10151000771F881F20F026173707480730F4620B23
:10152000730B840B200D311D411DA09581F7B9016E
:10153000842F9158880F9695879508959F3F31F095
:10154000915020F4879577956795B795880F911DF1
:101550009695879597F9089591505040660F771F9B
:10156000881FD2F70895662777270C94040DFB0196
:10157000DC010D900020E9F7119701900D920020F9
:10158000E1F70895FC018191861721F08823D9F7AE
:10159000992708953197CF010895FB01DC0101904F
:1015A0000D920020E1F70895FB01DC010D90002071
:1015B000E9F711974150504028F0019000200D921A
:1015C000C9F708951C920895FB01DC014150504079
:1015D00048F001900D920020C9F701C01D924150C2
:1015E0005040E0F70895AEE0B0E0E9EFFAE00C9487
:1015F0003F0F0D891E898F89988D26E02C831A83D1
:10160000098397FF02C080E090E801979E838D8355
:10161000AE01455E5F4F698D7A8DCE0101960E94C5
:10162000230B4D815E8157FD0AC02F8138854217FB
:1016300053070CF49A01F801E20FF31F10822E9663
:10164000E4E00C945B0FABE0B0E0E9E2FBE00C946B
:10165000310F6C017B018A01FC01178216828381A4
:1016600081FFCCC1CE0101963C01F6019381F701C7
:1016700093FD859193FF81917F01882309F4BAC17D
:10168000853239F493FD859193FF81917F018532F5
:1016900029F4B60190E00E94890EE7CF912C212C0D
:1016A000312CFFE1F315D8F08B3279F038F4803229
:1016B00079F08332A1F4232D20611DC08D3261F0B9
:1016C000803369F4232D216016C0832D8260382E6B
:1016D000E32DE4603E2E2AC0F32DF8601DC037FCD8
:1016E0002DC020ED280F2A3040F08E32B9F436FCA0
:1016F00081C1232D2064322E19C036FE06C08AE037
:10170000989E200D1124922E11C0EAE02E9E200DED
:101710001124222EF32DF0623F2E08C08C3621F4C6
:10172000832D8068382E02C0883641F4F70193FD7E
:10173000859193FF81917F018111B3CF982F9F7D78
:101740009554933028F40C5F1F4F9FE399830DC08D
:10175000833631F0833771F0833509F059C021C0E9
:10176000F801808189830E5F1F4F88248394912C18
:10177000530113C02801F2E04F0E511CF801A08064
:10178000B18036FE03C0692D70E002C06FEF7FEFBD
:10179000C5010E947E0E4C018201F32DFF773F2E82
:1017A00016C0280122E0420E511CF801A080B18031
:1017B00036FE03C0692D70E002C06FEF7FEFC501F8
:1017C0000E94730E4C01F32DF0683F2E820133FC12
:1017D0001BC0822D90E088169906B0F4B60180E215
:1017E00090E00E94890E2A94F4CFF50137FC859190
:1017F00037FE81915F01B60190E00E94890E2110B1
:101800002A9421E0821A91088114910471F7E8C0AA
:10181000843611F0893641F5F80137FE07C0608142
:101820007181828193810C5F1F4F08C0608171813B
:10183000072E000C880B990B0E5F1F4FF32DFF76C0
:101840003F2E97FF09C090958095709561957F4FC9
:101850008F4F9F4FF0683F2E2AE030E0A3010E9497
:10186000C50E882E861845C0853731F4232D2F7E6E
:10187000B22E2AE030E025C0932D997FB92E8F3605
:10188000C1F018F4883579F0B5C0803719F0883781
:1018900021F0B0C0E92FE061BE2EB4FE0DC0FB2DDB
:1018A000F460BF2E09C034FE0AC0292F2660B22E74
:1018B00006C028E030E005C020E130E002C020E1B1
:1018C00032E0F801B7FE07C06081718182819381A7
:1018D0000C5F1F4F06C06081718180E090E00E5F59
:1018E0001F4FA3010E94C50E882E8618FB2DFF777F
:1018F0003F2E36FE0DC0232D2E7FA22E891458F4C4
:1019000034FE0BC032FC09C0832D8E7EA82E05C08C
:10191000B82CA32C03C0B82C01C0B92CA4FE0FC056
:10192000FE01E80DF11D8081803321F49A2D997E0E
:10193000A92E09C0A2FE06C0B394B39404C08A2D98
:10194000867809F0B394A3FC11C0A0FE06C0B214BF
:1019500088F4280C922C9B180EC0B21460F4B601C7
:1019600080E290E00E94890EB394F7CFB21418F48D
:101970002B1802C0982C212CA4FE10C0B60180E3C5
:1019800090E00E94890EA2FE17C0A1FC03C088E768
:1019900090E002C088E590E0B6010CC08A2D867800
:1019A00059F0A1FE02C08BE201C080E2A7FC8DE2EB
:1019B000B60190E00E94890E891438F4B60180E3E4
:1019C00090E00E94890E9A94F7CF8A94F301E80D73
:1019D000F11D8081B60190E00E94890E8110F5CF43
:1019E000222009F442CEB60180E290E00E94890EE6
:1019F0002A94F6CFF6018681978102C08FEF9FEF80
:101A00002B96E2E10C944D0FA0E0B0E0EAE0FDE09F
:101A10000C94370FEC016B016115710519F0FB0196
:101A2000918380837E01FFEFEF1AFF0A0881802FE8
:101A300090E00E94520E892B11F0E701F3CF0D3296
:101A400039F47E0182E0E80EF11C098111E008C042
:101A50000B3229F47E0192E0E90EF11C098110E0BD
:101A6000E701219743E050E060E770E0CE010E947B
:101A70005B0E892BC1F4239645E050E06BE670E0E5
:101A8000CE010E945B0E892B09F42596C114D10466
:101A900019F0F601D183C0831111F6C060E070E047
:101AA00080E89FE7FAC043E050E068E670E0CE01CE
:101AB0000E945B0E892B59F4C114D10409F4E9C0CA
:101AC000F2E0EF0EF11CF601F182E082E2C020E0CC
:101AD00030E0A901C0E0D0E0F70180EDA82EA00E13
:101AE00089E08A1530F1912F9260B92E812F88708C
:101AF00012FF04C0811124C0219622C081112197B8
:101B0000A5E0B0E00E94260FDC01CB01880F991FF1
:101B1000AA1FBB1F9C01AD012A0D311D411D511D86
:101B2000283989E93807480789E1580748F01660DD
:101B300006C09EEFA9120AC013FD40C01860B12E66
:101B40008FEFE81AF80A00811B2DC6CF802F8F7DFA
:101B50008534A1F580818D3211F4106106C08B327D
:101B600021F0319661E070E004C08181329662E03C
:101B700070E080538A3018F0E61BF70B1FC060E05E
:101B800070E060389CE079075CF4DB01AA0FBB1FB2
:101B9000AA0FBB1F6A0F7B1F660F771F680F711D8F
:101BA0003196DF0111978C9180538A3050F314FFE6
:101BB00003C0719561957109C60FD71F11FF08C049
:101BC000C114D10429F0CF010197F60191838083DC
:101BD000CA01B9010E943409212F2370233019F062
:101BE0004B015C0106C04B015C01B7FAB094B7F839
:101BF000B09420E030E0A901C501B4010E9487083B
:101C0000882309F43EC0D7FF06C0D195C195D109FC
:101C100007E810E002C00FE910E06801F8E1CF1A10
:101C2000D10890E2E92EF12CCE15DF0574F0F80111
:101C30002591359145915491C501B4010E94EB095C
:101C40004B015C01CE19DF09EFCF04501109F59467
:101C5000E7940C151D0541F78A2D880F8B2D881FE1
:101C60008F3F49F020E030E0A901C501B4010E9496
:101C70008708811106C082E290E09093DD01809395
:101C8000DC01C501B40109C060E070E080E89FEFAD
:101C900004C060E070E080EC9FE7CDB7DEB7ECE019
:101CA0000C94530F91110C94230F803219F089502A
:101CB0008550C8F70895FB01DC014150504088F081
:101CC0008D9181341CF08B350CF4805E659161340C
:101CD0001CF06B350CF4605E861B611171F3990B7F
:101CE0000895881BFCCFFC010590615070400110E5
:101CF000D8F7809590958E0F9F1F0895FC01615035
:101D0000704001900110D8F7809590958E0F9F1F1D
:101D100008950F931F93CF93DF93FB01238121FD40
:101D200003C08FEF9FEF2CC022FF16C04681578162
:101D3000248135814217530744F4A081B1819D016C
:101D40002F5F3F4F318320838C93268137812F5F14
:101D50003F4F3783268314C08B01EC01FB010084C5
:101D6000F185E02D0995892BE1F6D80116968D9124
:101D70009C911797019617969C938E931697CE0178
:101D8000DF91CF911F910F910895FA01AA27283072
:101D900051F1203181F1E8946F936E7F6E5F7F4F38
:101DA0008F4F9F4FAF4FB1E03ED0B4E03CD0670FB4
:101DB000781F891F9A1FA11D680F791F8A1F911D07
:101DC000A11D6A0F711D811D911DA11D20D009F457
:101DD00068943F912AE0269F11243019305D319399
:101DE000DEF6CF010895462F4770405D4193B3E082
:101DF0000FD0C9F7F6CF462F4F70405D4A3318F029
:101E0000495D31FD4052419302D0A9F7EACFB4E0D9
:101E1000A6959795879577956795BA95C9F7009791
:101E20006105710508959B01AC010A2E0694579532
:101E3000479537952795BA95C9F7620F731F841F89
:101E4000951FA01D08959927882708950E94680F5F
:101E5000A59F900DB49F900DA49F800D911D1124FE
:101E600008952F923F924F925F926F927F928F923E
:101E70009F92AF92BF92CF92DF92EF92FF920F9319
:101E80001F93CF93DF93CDB7DEB7CA1BDB0B0FB623
:101E9000F894DEBF0FBECDBF09942A8839884888E0
:101EA0005F846E847D848C849B84AA84B984C88476
:101EB000DF80EE80FD800C811B81AA81B981CE0F6D
:101EC000D11D0FB6F894DEBF0FBECDBFED01089552
:101ED000A29FB001B39FC001A39F700D811D11246B
:101EE000911DB29F700D811D1124911D0895F894CC
:021EF000FFCF22
:101EF200010157015C01610166016A0158015D013E
:101F02006D0170012B2D2A2F3D3C30313233343597
:101F1200363738390D0013000600070008000900A3
:101F22000A000E000F0010001100120043616C63E2
:101F3200756C61746F722052656164790029003D8D
:101F4200252E33660028006173696E0061636F732A
:101F5200006174616E006C6F67006C6E00655E00FC
:061F6200737172740000AF
:00000001FF
